{
  "contractName": "TodoList",
  "abi": [
    {
      "inputs": [],
      "stateMutability": "nonpayable",
      "type": "constructor"
    },
    {
      "anonymous": false,
      "inputs": [
        {
          "indexed": false,
          "internalType": "uint256",
          "name": "id",
          "type": "uint256"
        },
        {
          "indexed": false,
          "internalType": "string",
          "name": "content",
          "type": "string"
        },
        {
          "indexed": false,
          "internalType": "bool",
          "name": "completed",
          "type": "bool"
        }
      ],
      "name": "TaskCompleted",
      "type": "event"
    },
    {
      "anonymous": false,
      "inputs": [
        {
          "indexed": false,
          "internalType": "uint256",
          "name": "id",
          "type": "uint256"
        },
        {
          "indexed": false,
          "internalType": "string",
          "name": "content",
          "type": "string"
        },
        {
          "indexed": false,
          "internalType": "bool",
          "name": "completed",
          "type": "bool"
        }
      ],
      "name": "TaskCreated",
      "type": "event"
    },
    {
      "anonymous": false,
      "inputs": [
        {
          "indexed": false,
          "internalType": "uint256",
          "name": "id",
          "type": "uint256"
        },
        {
          "indexed": false,
          "internalType": "string",
          "name": "content",
          "type": "string"
        },
        {
          "indexed": false,
          "internalType": "bool",
          "name": "completed",
          "type": "bool"
        }
      ],
      "name": "TaskDeleted",
      "type": "event"
    },
    {
      "inputs": [],
      "name": "taskCount",
      "outputs": [
        {
          "internalType": "uint256",
          "name": "",
          "type": "uint256"
        }
      ],
      "stateMutability": "view",
      "type": "function",
      "constant": true
    },
    {
      "inputs": [
        {
          "internalType": "uint256",
          "name": "",
          "type": "uint256"
        }
      ],
      "name": "tasks",
      "outputs": [
        {
          "internalType": "uint256",
          "name": "id",
          "type": "uint256"
        },
        {
          "internalType": "string",
          "name": "content",
          "type": "string"
        },
        {
          "internalType": "bool",
          "name": "completed",
          "type": "bool"
        }
      ],
      "stateMutability": "view",
      "type": "function",
      "constant": true
    },
    {
      "inputs": [
        {
          "internalType": "string",
          "name": "_content",
          "type": "string"
        }
      ],
      "name": "createTask",
      "outputs": [],
      "stateMutability": "nonpayable",
      "type": "function"
    },
    {
      "inputs": [
        {
          "internalType": "uint256",
          "name": "_id",
          "type": "uint256"
        }
      ],
      "name": "toggleCompleted",
      "outputs": [],
      "stateMutability": "nonpayable",
      "type": "function"
    },
    {
      "inputs": [
        {
          "internalType": "uint256",
          "name": "_id",
          "type": "uint256"
        }
      ],
      "name": "deleteTask",
      "outputs": [],
      "stateMutability": "nonpayable",
      "type": "function"
    }
  ],
  "bytecode": "0x6080604052600080553480156200001557600080fd5b506200005c6040518060400160405280600d81526020017f446f2065786572636973657321000000000000000000000000000000000000008152506200006260201b60201c565b620005a8565b6000604051806060016040528060005481526020018381526020016000151581525090506001819080600181540180825580915050600190039060005260206000209060030201600090919091909150600082015181600001556020820151816001019081620000d39190620003c0565b5060408201518160020160006101000a81548160ff02191690831515021790555050507f05d0fb833127fc08168556d0e7ca9554fc3f6bc843b3b7d2bf1c35aea6bab6606000548360006040516200012e9392919062000564565b60405180910390a16001805490506000819055505050565b600081519050919050565b7f4e487b7100000000000000000000000000000000000000000000000000000000600052604160045260246000fd5b7f4e487b7100000000000000000000000000000000000000000000000000000000600052602260045260246000fd5b60006002820490506001821680620001c857607f821691505b602082108103620001de57620001dd62000180565b5b50919050565b60008190508160005260206000209050919050565b60006020601f8301049050919050565b600082821b905092915050565b600060088302620002487fffffffffffffffffffffffffffffffffffffffffffffffffffffffffffffffff8262000209565b62000254868362000209565b95508019841693508086168417925050509392505050565b6000819050919050565b6000819050919050565b6000620002a16200029b62000295846200026c565b62000276565b6200026c565b9050919050565b6000819050919050565b620002bd8362000280565b620002d5620002cc82620002a8565b84845462000216565b825550505050565b600090565b620002ec620002dd565b620002f9818484620002b2565b505050565b5b81811015620003215762000315600082620002e2565b600181019050620002ff565b5050565b601f82111562000370576200033a81620001e4565b6200034584620001f9565b8101602085101562000355578190505b6200036d6200036485620001f9565b830182620002fe565b50505b505050565b600082821c905092915050565b6000620003956000198460080262000375565b1980831691505092915050565b6000620003b0838362000382565b9150826002028217905092915050565b620003cb8262000146565b67ffffffffffffffff811115620003e757620003e662000151565b5b620003f38254620001af565b6200040082828562000325565b600060209050601f83116001811462000438576000841562000423578287015190505b6200042f8582620003a2565b8655506200049f565b601f1984166200044886620001e4565b60005b8281101562000472578489015182556001820191506020850194506020810190506200044b565b868310156200049257848901516200048e601f89168262000382565b8355505b6001600288020188555050505b505050505050565b620004b2816200026c565b82525050565b600082825260208201905092915050565b60005b83811015620004e9578082015181840152602081019050620004cc565b60008484015250505050565b6000601f19601f8301169050919050565b6000620005138262000146565b6200051f8185620004b8565b935062000531818560208601620004c9565b6200053c81620004f5565b840191505092915050565b60008115159050919050565b6200055e8162000547565b82525050565b60006060820190506200057b6000830186620004a7565b81810360208301526200058f818562000506565b9050620005a0604083018462000553565b949350505050565b610f5c80620005b86000396000f3fe608060405234801561001057600080fd5b50600436106100575760003560e01c8063111002aa1461005c578063455f502414610078578063560f3192146100945780638d977672146100b0578063b6cb58a5146100e2575b600080fd5b6100766004803603810190610071919061096d565b610100565b005b610092600480360381019061008d91906109ec565b6101e0565b005b6100ae60048036038101906100a991906109ec565b61038a565b005b6100ca60048036038101906100c591906109ec565b6106e1565b6040516100d993929190610ac2565b60405180910390f35b6100ea6107b0565b6040516100f79190610b00565b60405180910390f35b600060405180606001604052806000548152602001838152602001600015158152509050600181908060018154018082558091505060019003906000526020600020906003020160009091909190915060008201518160000155602082015181600101908161016f9190610d27565b5060408201518160020160006101000a81548160ff02191690831515021790555050507f05d0fb833127fc08168556d0e7ca9554fc3f6bc843b3b7d2bf1c35aea6bab6606000548360006040516101c893929190610ac2565b60405180910390a16001805490506000819055505050565b6000600182815481106101f6576101f5610df9565b5b90600052602060002090600302016040518060600160405290816000820154815260200160018201805461022990610b4a565b80601f016020809104026020016040519081016040528092919081815260200182805461025590610b4a565b80156102a25780601f10610277576101008083540402835291602001916102a2565b820191906000526020600020905b81548152906001019060200180831161028557829003601f168201915b505050505081526020016002820160009054906101000a900460ff161515151581525050905080604001511581604001901515908115158152505080600183815481106102f2576102f1610df9565b5b906000526020600020906003020160008201518160000155602082015181600101908161031f9190610d27565b5060408201518160020160006101000a81548160ff0219169083151502179055509050507fbc9b38ef3e28b52270aeb098b26eb25282dbc554fc9e8104a6b787bfa8f75240828260200151836040015160405161037e93929190610ac2565b60405180910390a15050565b600081101580156103ab5750600180805490506103a79190610e57565b8111155b6103ea576040517f08c379a00000000000000000000000000000000000000000000000000000000081526004016103e190610ed7565b60405180910390fd5b6000600180805490506103fd9190610e57565b905060006001828154811061041557610414610df9565b5b90600052602060002090600302016040518060600160405290816000820154815260200160018201805461044890610b4a565b80601f016020809104026020016040519081016040528092919081815260200182805461047490610b4a565b80156104c15780601f10610496576101008083540402835291602001916104c1565b820191906000526020600020905b8154815290600101906020018083116104a457829003601f168201915b505050505081526020016002820160009054906101000a900460ff16151515158152505090506000600184815481106104fd576104fc610df9565b5b90600052602060002090600302016040518060600160405290816000820154815260200160018201805461053090610b4a565b80601f016020809104026020016040519081016040528092919081815260200182805461055c90610b4a565b80156105a95780601f1061057e576101008083540402835291602001916105a9565b820191906000526020600020905b81548152906001019060200180831161058c57829003601f168201915b505050505081526020016002820160009054906101000a900460ff161515151581525050905081600185815481106105e4576105e3610df9565b5b90600052602060002090600302016000820151816000015560208201518160010190816106119190610d27565b5060408201518160020160006101000a81548160ff021916908315150217905550905050600180548061064757610646610ef7565b5b600190038181906000526020600020906003020160008082016000905560018201600061067491906107b6565b6002820160006101000a81549060ff0219169055505090557f4c96326c0143033e08b46e6eff1a9d46b9c5cb6bd853ddae7c776cd999b228bc84826020015183604001516040516106c793929190610ac2565b60405180910390a160018054905060008190555050505050565b600181815481106106f157600080fd5b906000526020600020906003020160009150905080600001549080600101805461071a90610b4a565b80601f016020809104026020016040519081016040528092919081815260200182805461074690610b4a565b80156107935780601f1061076857610100808354040283529160200191610793565b820191906000526020600020905b81548152906001019060200180831161077657829003601f168201915b5050505050908060020160009054906101000a900460ff16905083565b60005481565b5080546107c290610b4a565b6000825580601f106107d457506107f3565b601f0160209004906000526020600020908101906107f291906107f6565b5b50565b5b8082111561080f5760008160009055506001016107f7565b5090565b6000604051905090565b600080fd5b600080fd5b600080fd5b600080fd5b6000601f19601f8301169050919050565b7f4e487b7100000000000000000000000000000000000000000000000000000000600052604160045260246000fd5b61087a82610831565b810181811067ffffffffffffffff8211171561089957610898610842565b5b80604052505050565b60006108ac610813565b90506108b88282610871565b919050565b600067ffffffffffffffff8211156108d8576108d7610842565b5b6108e182610831565b9050602081019050919050565b82818337600083830152505050565b600061091061090b846108bd565b6108a2565b90508281526020810184848401111561092c5761092b61082c565b5b6109378482856108ee565b509392505050565b600082601f83011261095457610953610827565b5b81356109648482602086016108fd565b91505092915050565b6000602082840312156109835761098261081d565b5b600082013567ffffffffffffffff8111156109a1576109a0610822565b5b6109ad8482850161093f565b91505092915050565b6000819050919050565b6109c9816109b6565b81146109d457600080fd5b50565b6000813590506109e6816109c0565b92915050565b600060208284031215610a0257610a0161081d565b5b6000610a10848285016109d7565b91505092915050565b610a22816109b6565b82525050565b600081519050919050565b600082825260208201905092915050565b60005b83811015610a62578082015181840152602081019050610a47565b60008484015250505050565b6000610a7982610a28565b610a838185610a33565b9350610a93818560208601610a44565b610a9c81610831565b840191505092915050565b60008115159050919050565b610abc81610aa7565b82525050565b6000606082019050610ad76000830186610a19565b8181036020830152610ae98185610a6e565b9050610af86040830184610ab3565b949350505050565b6000602082019050610b156000830184610a19565b92915050565b7f4e487b7100000000000000000000000000000000000000000000000000000000600052602260045260246000fd5b60006002820490506001821680610b6257607f821691505b602082108103610b7557610b74610b1b565b5b50919050565b60008190508160005260206000209050919050565b60006020601f8301049050919050565b600082821b905092915050565b600060088302610bdd7fffffffffffffffffffffffffffffffffffffffffffffffffffffffffffffffff82610ba0565b610be78683610ba0565b95508019841693508086168417925050509392505050565b6000819050919050565b6000610c24610c1f610c1a846109b6565b610bff565b6109b6565b9050919050565b6000819050919050565b610c3e83610c09565b610c52610c4a82610c2b565b848454610bad565b825550505050565b600090565b610c67610c5a565b610c72818484610c35565b505050565b5b81811015610c9657610c8b600082610c5f565b600181019050610c78565b5050565b601f821115610cdb57610cac81610b7b565b610cb584610b90565b81016020851015610cc4578190505b610cd8610cd085610b90565b830182610c77565b50505b505050565b600082821c905092915050565b6000610cfe60001984600802610ce0565b1980831691505092915050565b6000610d178383610ced565b9150826002028217905092915050565b610d3082610a28565b67ffffffffffffffff811115610d4957610d48610842565b5b610d538254610b4a565b610d5e828285610c9a565b600060209050601f831160018114610d915760008415610d7f578287015190505b610d898582610d0b565b865550610df1565b601f198416610d9f86610b7b565b60005b82811015610dc757848901518255600182019150602085019450602081019050610da2565b86831015610de45784890151610de0601f891682610ced565b8355505b6001600288020188555050505b505050505050565b7f4e487b7100000000000000000000000000000000000000000000000000000000600052603260045260246000fd5b7f4e487b7100000000000000000000000000000000000000000000000000000000600052601160045260246000fd5b6000610e62826109b6565b9150610e6d836109b6565b9250828203905081811115610e8557610e84610e28565b5b92915050565b7f5461736b20646f6573206e6f7420657869737400000000000000000000000000600082015250565b6000610ec1601383610a33565b9150610ecc82610e8b565b602082019050919050565b60006020820190508181036000830152610ef081610eb4565b9050919050565b7f4e487b7100000000000000000000000000000000000000000000000000000000600052603160045260246000fdfea2646970667358221220aca91a1ae469d65dd34f074c9711e9ec2ed1124039772bd78b75ca6868b3faeb64736f6c63430008130033",
  "immutableReferences": {},
  "source": "// SPDX-License-Identifier: MIT\r\npragma solidity >=0.8.0 <0.9.0;\r\n\r\ncontract TodoList {\r\n    event TaskCreated(uint id, string content, bool completed);\r\n    event TaskCompleted(uint id, string content, bool completed);\r\n    event TaskDeleted(uint id, string content, bool completed);\r\n\r\n    uint public taskCount = 0;\r\n\r\n    struct Task {\r\n        uint id;\r\n        string content;\r\n        bool completed;\r\n    }\r\n\r\n    Task[] public tasks;\r\n\r\n    constructor() {\r\n        createTask(\"Do exercises!\");\r\n    }\r\n\r\n    function createTask(string memory _content) public {\r\n        Task memory newTask = Task(taskCount, _content, false);\r\n\r\n        tasks.push(newTask);\r\n\r\n        emit TaskCreated(taskCount, _content, false);\r\n\r\n        taskCount = tasks.length;\r\n    }\r\n\r\n    function toggleCompleted(uint _id) public {\r\n        Task memory task = tasks[_id];\r\n\r\n        task.completed = !task.completed;\r\n\r\n        tasks[_id] = task;\r\n\r\n        emit TaskCompleted(_id, task.content, task.completed);\r\n    }\r\n\r\n    function deleteTask(uint _id) public {\r\n        require(_id >= 0 && _id <= tasks.length - 1, \"Task does not exist\");\r\n\r\n        uint lastTaskIndex = tasks.length - 1;\r\n        Task memory lastTask = tasks[lastTaskIndex];\r\n        Task memory deletingTask = tasks[_id];\r\n        tasks[_id] = lastTask;\r\n        tasks.pop();\r\n\r\n        emit TaskDeleted(_id, deletingTask.content, deletingTask.completed);\r\n\r\n        taskCount = tasks.length;\r\n    }\r\n}\r\n",
  "sourcePath": "W:\\Blockchain\\TodoList\\contracts\\TodoList.sol",
  "compiler": {
    "name": "solc",
    "version": "0.8.19+commit.7dd6d404.Emscripten.clang"
  },
  "schemaVersion": "3.4.14",
  "updatedAt": "2023-07-15T11:13:28.708Z",
  "networkType": "ethereum",
  "devdoc": {
    "kind": "dev",
    "methods": {},
    "version": 1
  },
  "userdoc": {
    "kind": "user",
    "methods": {},
    "version": 1
  }
}